:020000040800F2
:100000008006002069280008252700082727000807
:10001000292700082B2700082D27000800000000D2
:100020000000000000000000000000002F27000872
:10003000312700080000000033270008352700089A
:1000400095280008992800089D280008A128000884
:10005000A5280008A9280008AD280008B128000834
:10006000B5280008B9280008BD280008C1280008E4
:10007000C5280008C92800083D270008CD28000829
:10008000D1280008D5280008D9280008DD28000854
:10009000E1280008E5280008E9280008ED28000804
:1000A000F128000847270008F5280008F92800086B
:1000B000FD28000801290008052900080929000871
:1000C0000D29000811290008152900081929000820
:1000D0001D290008512700082129000825290008AA
:1000E000292900082D2900083129000810B504002D
:1000F000002C01D1012035E0A0690028FFD194F83F
:100100004100002805D1002084F84000200000F0C4
:1001100048FC242084F841002068C06830F4005076
:100120002168C860200000F07BFB2068006930F483
:100130009040216808612068406930F02A002168F9
:1001400048612068C06850F400502168C8600020F1
:100150006064202084F84100202084F842000020C0
:100160006063002010BD70B505000C00160095F806
:100170004200202810D1002C03D0300080B200288B
:1001800001D1012009E000202863320092B2210051
:10019000280000F013FA00E0022070BD73B50400DF
:1001A000150094F8410020283AD10198002803D086
:1001B000280080B2002801D1012032E0019820629D
:1001C000A584E58400206064212084F8410015485E
:1001D000A16B88621448A16BC8621448A16B0863C4
:1001E0000020A16B486301AE2B009BB22068021D6A
:1001F0003168A06B00F07BFC7FF040002168086054
:100200002068143050E8000F50F080000100206892
:1002100010F1140242E800100028F1D1002000E0A3
:10022000022076BD03050008570500086505000893
:100230002DE9FC470600306807683068D0F80C806C
:100240003068D0F814900020002517F00F04002C1F
:1002500008D1B80606D55FEA886003D5300000F003
:1002600064FA4CE1002C00F080805FEAC97002D48F
:1002700018F4907F79D017F00100C0B2002806D0A2
:100280005FEAC85003D5706C50F0010070647807C5
:1002900008D519F00100C0B2002803D0706C50F0EE
:1002A00002007064B80708D519F00100C0B2002838
:1002B00003D0706C50F00400706438070BD55FEA0F
:1002C000886004D419F00100C0B2002803D0706C1B
:1002D00050F008007064706C002845D0B80605D551
:1002E0005FEA886002D5300000F01FFA306840698C
:1002F000800910F001000500706C000701D4002D8A
:100300002DD0300000F08EF930684069400622D5CB
:100310003068143050E8000F30F0400001003068C1
:1003200010F1140242E800100028F1D1F06B00280F
:100330000DD00FF25930F16B4863F06B00F04AFCBE
:10034000002811D0F06BF16B496B88470CE030004E
:1003500000F078FD08E0300000F074FD04E03000AB
:1003600000F070FD00207064C9E0306B012840F09F
:10037000B480F80640F1B1805FEAC86040F1AD801A
:10038000002000903068006800903068406800905D
:1003900000983068406940065CD5F06B0068D0F882
:1003A00004A0504680B2002853D05046B18D80B290
:1003B00088424ED2A6F82EA0F06B806920283FD04C
:1003C00030680C3050E8000F30F480700100306865
:1003D00010F10C0242E800100028F1D1306814300E
:1003E00050E8000F400840000100306810F114028E
:1003F00042E800100028F1D13068143050E8000FB6
:1004000030F040000100306810F1140242E80010A2
:100410000028F1D1202086F84200002030633068A7
:100420000C3050E8000F30F010000100306810F17F
:100430000C0242E800100028F1D1F06B00F0A3FBA1
:1004400002207063B18DF08D091A89B2300000F07E
:10045000FAFC54E0B08DB6F82EA0B0EB0A0AF08D8D
:10046000002839D0504680B2002835D030680C3092
:1004700050E8000F30F490700100306810F10C0269
:1004800042E800100028F1D13068143050E8000F25
:10049000400840000100306810F1140242E80010EA
:1004A0000028F1D1202086F8420000203063306817
:1004B0000C3050E8000F30F010000100306810F1EF
:1004C0000C0242E800100028F1D10220706351466E
:1004D00089B2300000F0B7FC11E0380606D55FEABB
:1004E000086003D5300000F0DDF808E0780606D596
:1004F0005FEA486003D5300000F007F9FFE7BDE888
:10050000F38738B50400656A2068006880061ED449
:100510000020E8842868143050E8000F30F0800094
:100520000100286810F1140242E800100028F1D1FF
:1005300028680C3050E8000F50F040000100286897
:1005400010F10C0242E800100028F1D102E028006E
:1005500000F07AFC31BD38B50400656A280000F06F
:1005600074FC31BDF8B506000020776A39684C6923
:10057000E40914F0010497F84110212906D1002C58
:1005800004D00020F884380000F03AF83868456953
:10059000AD0915F0010597F84200222806D1002D7B
:1005A00004D00020F885380000F03CF8786C50F05A
:1005B00010007864380000F045FCF1BD10B4030071
:1005C00099629A85DA8500205864222083F84200D7
:1005D0001869002805D01868C06850F480701C683D
:1005E000E0601868406950F001001C68606118689C
:1005F000C06850F020001C68E060002010BC70470C
:1006000001680C3151E8001F31F0C0010A00016897
:1006100011F10C0343E800210029F1D1202180F8D9
:100620004110704701680C3151E8001F31F490719E
:100630000A00016811F10C0343E800210029F1D1FF
:100640000168143151E8001F490849000A00016897
:1006500011F1140343E800210029F1D1016B0129B4
:100660000DD101680C3151E8001F31F010010A0072
:10067000016811F10C0343E800210029F1D1202188
:1006800080F84210002101637047000038B5040073
:10069000656A0020E8850020E884280000F0D2FB8D
:1006A00031BD0000010091F8410021282BD188685C
:1006B000B0F5805F0DD1086900280AD1086A0200F0
:1006C0001088C005C00D0B685860086A801C08625D
:1006D00005E0086A431C0B6200780B685860C88C00
:1006E000401EC88480B200280BD10868C06830F072
:1006F00080000B68D8600868C06850F040000B6844
:10070000D860002000E00220704710B50400206887
:10071000C06830F040002168C860202084F84100A3
:10072000200000F091FB002010BD7CB5040094F87F
:100730004200222872D1A068B0F5805F0DD12069F7
:1007400000280AD10025A66A20684068C005C00DAF
:100750003080A06A801CA06217E0A56A0026A0680D
:10076000B0F5805F05D0A068002806D12069002878
:1007700003D120684068287004E02068406810F0C9
:100780007F002870A06A401CA062E08D401EE085BA
:1007900080B2002840D12068C06830F02000216875
:1007A000C8602068C06830F480702168C860206824
:1007B00040694008400021684861202084F84200D8
:1007C00000206063206B012821D100202063206875
:1007D0000C3050E8000F30F010000100206810F1DC
:1007E0000C0242E800100028F1D120680068C00621
:1007F00008D50020009020680068009020684068BC
:1008000000900098A18D200000F01DFB02E0200068
:1008100000F073FB002002E0002000E0022076BD23
:10082000F8B504002068016931F44051E0680143E3
:1008300020680161A5682069054360690543206857
:10084000C1682D48014029432068C1602068416982
:1008500031F44071A0690143206841612068274953
:10086000884202D100F042FE01E000F034FE642133
:10087000192202FB00F36668B600B3FBF6F36426A8
:10088000B3FBF6F302FB00F66768BF00B6FBF7F6B2
:1008900002FB00F7D4F804C05FEA8C0CB7FBFCF74E
:1008A0005FF0640CB7FBFCF701FB176636013236CC
:1008B0006427B6FBF7F616F0F00616EB031602FBFC
:1008C00000F36768BF00B3FBF7F302FB00F2676851
:1008D000BF00B2FBF7F26427B2FBF7F201FB123163
:1008E000090132316422B1FBF2F111F00F018E19CE
:1008F00021688E60F1BD0000F3E9FFFF0038014080
:1009000081B05748016851F001010160006810F0A2
:100910000100009000985348016851F08051016037
:10092000006810F08050009000984F49086830F03F
:10093000E06050F00070086001B0704718B585B0F5
:10094000040001A8102100F013FE206847498842E6
:1009500025D14348016851F400610160016811F438
:10096000006100910099016851F004010160006884
:1009700010F00400009000984FF4407001900020A7
:1009800002900020039001A9394800F011FE0022D6
:100990000021192000F0BFFF192000F0D1FF06B0A0
:1009A00010BD30B585B004006846102100F0E0FDB0
:1009B00020683049884250D12948016851F480416B
:1009C0000160016811F4804104910499016851F0BB
:1009D00008010160006810F00800049004984020AD
:1009E00000900220019003200390234D69462800C7
:1009F00000F0DEFD80200090002001900020029099
:100A00006946280000F0D4FD1749086850F0E060FE
:100A100050F004000860194D1948286010206860E3
:100A20000020A8608020E860002028610020686124
:100A30000020A8610020E861280000F023F80028C9
:100A400001D001F0A7F8A5636C62002200212520E7
:100A500000F061FF252000F073FF05B030BD0000FD
:100A6000181002401C10024004000140002C0140FC
:100A70000008014000380140000C0140E001002066
:100A80004400024010B401000022002901D10120DD
:100A90002BE00B68DFF85C03C3181420B3FBF0F005
:100AA00080000864DFF85003C863022081F8210049
:100AB000086803686FF30D134C6888680443C868BE
:100AC0000443086904434869044388690443C869C6
:100AD000044323430868036000208863012081F8F1
:100AE0002100002081F82000002010BC70472DE973
:100AF000F04104000D0016001F005FF0000894F89C
:100B00002000012801D102203BE0012084F82000D0
:100B100094F8210001282DD1022084F82100002022
:100B2000A0632068006840084000216808603B001E
:100B300032002900200000F06FF9E06A002806D09A
:100B40002068006850F00E00216808600BE0206803
:100B5000006830F00400216808602068006850F0E8
:100B60000A00216808602068006850F001002168D0
:100B7000086004E0002084F82000022080464046FF
:100B8000C0B2BDE8F0810100002291F821000228E6
:100B900006D004208863002081F82000012018E09E
:100BA0000868006830F00E000B681860086800687C
:100BB000400840000B6818600123086C8340C86B34
:100BC0004360012081F82100002081F820001000FE
:100BD000C0B2704738B50400002594F821000228FF
:100BE00004D00420A063012005004AE020680068CA
:100BF00030F00E002168086020680068400840005E
:100C0000216808602068DFF8F411884201D10120D2
:100C100028E02068DFF8E811884201D1102021E0A7
:100C20002068DFF8E011884202D14FF4807019E0AB
:100C30002068DFF8D411884202D14FF4805011E0CF
:100C40002068DFF8C811884202D15FF4803009E0E3
:100C50002068DFF8BC11884202D15FF4801001E007
:100C60005FF08070DFF8AC110860012084F821008B
:100C7000002084F82000606B002802D02000616B07
:100C800088472800C0B232BD70B50400E06B05682B
:100C9000206806680421206C81400D423ED0700718
:100CA0003CD520680068800605D42068006830F0D4
:100CB00004002168086020685049884201D104205E
:100CC00023E020684E49884201D140201DE0206881
:100CD0004C49884202D14FF4806016E020684A49AE
:100CE000884202D14FF480400FE020684749884293
:100CF00002D15FF4802008E020684549884202D193
:100D00005FF4800001E05FF0806042490860E06AC3
:100D100000286DD02000E16A884769E00221206C3C
:100D200081400D4244D0B00742D52068006880065B
:100D300008D42068006830F00A00216808600120AB
:100D400084F8210020682D49884201D1022023E047
:100D500020682B49884201D120201DE020682949C4
:100D6000884202D14FF4007016E02068264988427C
:100D700002D14FF400500FE020682449884202D18C
:100D80005FF4003008E020682149884202D15FF416
:100D9000001001E05FF000701E490860002084F838
:100DA0002000A06A002823D02000A16A88471FE005
:100DB0000821206C81400D421AD0300718D52068D8
:100DC000006830F00E00216808600121206C81402D
:100DD000E06B41600120A063012084F82100002025
:100DE00084F82000206B002802D02000216B884767
:100DF00070BD0000F8FFFDBF000002400800024087
:100E00001C000240300002404400024058000240F2
:100E10006C0002400400024030B40125046CA5407F
:100E2000C46B6560046863604468102C04D1046876
:100E3000A2600468E16003E00468A1600468E26005
:100E400030BC7047704770477047704710B402005D
:100E500010685368984201D100200CE053685B1C75
:100E6000802093FBF0F400FB143302EB0300007AC4
:100E700008705360012010BC704710B40200136862
:100E80005B1C802093FBF0F400FB1433506883421A
:100E900001D1002004E002EB030001721360012085
:100EA00010BC704738B504000D002800020092B253
:100EB00021001B48FFF772F931BD2DE9F041040014
:100EC0000D00174F0026AE4214D272B6DFF85480E0
:100ED00004EB06014046FFF7B9FF002807D10122C5
:100EE00018F188013800FFF73EF962B602E062B6F9
:100EF000761CE8E73000BDE8F08138B5040008480A
:100F000084420CD1074D20684168C9B22800FFF720
:100F1000B4FF012215F188012000FFF724F931BD4B
:100F200098010020740000202DE9FC470400002CEB
:100F300001D10120F6E12078C0076BD5DFF8EC0580
:100F4000016811F00C01042907D0016811F00C01AF
:100F500008290CD10068C00309D5DFF8CC0500686A
:100F6000800357D56068002854D10120DAE1606819
:100F7000B0F5803F06D1DFF8B005016851F480314B
:100F8000016026E0606800280AD1DFF89C0501684E
:100F900031F480310160016831F48021016018E092
:100FA0006068B0F5A02F0AD1DFF87C05016851F424
:100FB00080210160016851F48031016009E0DFF8AF
:100FC0006805016831F480310160016831F48021E5
:100FD0000160606800280ED000F0DEFD0500DFF83B
:100FE00048050068800315D400F0D6FD401B652835
:100FF000F5D3032096E100F0CFFD0500DFF82805CA
:101000000068800306D500F0C7FD401B6528F5D3B6
:10101000032087E12078800750D5DFF810050168AC
:1010200011F00C0F07D0016811F00C01082914D140
:101030000068C00311D4DFF8F0040168890704D503
:101040002169012901D001206CE1016831F0F8012A
:10105000626951EAC201016030E0206900281AD0BB
:101060000120DFF8DC14086000F096FD0500DFF8D1
:10107000B8040168890706D400F08EFD401B0328E0
:10108000F5D303204EE1016831F0F801626951EABD
:10109000C201016012E00020DFF8A414086000F033
:1010A0007BFD0500DFF880040068800706D500F0AE
:1010B00073FD401B0328F5D3032033E1207800079C
:1010C0002CD5A069002816D00120DFF8781408601C
:1010D00000F062FD0500DFF864040068800706D4B4
:1010E00000F05AFD401B0328F5D303201AE101202C
:1010F00000F007FA12E00020DFF84814086000F062
:101100004BFD0500DFF834040068800706D500F0C9
:1011100043FD401B0328F5D3032003E1207840075B
:1011200040F18E800027DFF82084D8F80000C0004E
:101130000DD4D8F8000050F08050C8F80000D8F85E
:10114000000010F080500090009801200700DFF8A8
:10115000FC93D9F80000C00513D4D9F8000050F46E
:101160008070C9F8000000F017FD0500D9F80000F4
:10117000C00506D400F010FD401B6528F6D30320FF
:10118000D0E0E068012806D1DFF8C403016851F01F
:101190000101016025E0E06800280AD1DFF8B00312
:1011A0000168490849000160016831F004010160EB
:1011B00017E0E06805280AD1DFF89403016851F0D0
:1011C00004010160016851F00101016009E0DFF8EC
:1011D00080030168490849000160016831F0040199
:1011E0000160E068002810D000F0D6FC0500DFF8B0
:1011F00060030068800719D400F0CEFC401B41F268
:1012000089318842F3D303208CE000F0C5FC05004F
:10121000DFF83C030068800708D500F0BDFC401BE8
:1012200041F289318842F3D303207BE03800C0B219
:10123000012805D1D8F8000030F08050C8F800002F
:10124000E06900286DD0DFF8E482D8F8000010F0E3
:101250000C00082851D0E06902283BD1DFF8F4A245
:101260000020CAF8000000F097FC0700DFF8B892F1
:10127000D9F80000800106D500F08EFCC01B0328C1
:10128000F4D303204EE0206AB0F5803F07D1D8F8B0
:10129000001031F40031A0680143C8F80010D8F8FC
:1012A000001031F47411206A0143606A0143C8F8E8
:1012B00000100120CAF8000000F06EFC0500D9F80B
:1012C000000080012DD400F067FC401B0328F6D3FA
:1012D000032027E00020DFF87C12086000F05CFCAF
:1012E0000500DFF84402006880011AD500F054FCC4
:1012F000401B0328F5D3032014E0E069012801D145
:1013000001200FE0D8F80000060016F48030216AB2
:10131000884204D116F47010616A884201D001201D
:1013200000E00020BDE8F6872DE9F04104000D0043
:10133000002C01D101209BE0DFF81C72386810F00E
:101340000700A8420BD23868C008C00028433860A4
:10135000386810F00700A84201D0012088E020780A
:10136000800716D52078400704D57048016851F4ED
:10137000E06101602078000704D56C48016851F4F1
:101380006051016069490A6832F0F002A0680243C6
:101390000A602078C00735D56068012805D1624809
:1013A0000068800310D4012062E06068022805D143
:1013B0005D480068800107D4012059E05A48006860
:1013C000800701D4012053E0DFF86081D8F80010D5
:1013D0008908890060680143C8F8001000F0DCFB50
:1013E0000600D8F8000010F00C006168B0EB810F27
:1013F00008D000F0D1FB801B41F289318842F0D344
:10140000032035E0386810F0070085420BD23868B9
:10141000C008C00028433860386810F00700A842B0
:1014200001D0012024E02078400706D53F490A6812
:1014300032F4E062E06802430A602078000707D5D2
:101440003A48016831F46051226951EAC2010160F1
:1014500000F010F84149354A1268C2F30312895C62
:10146000C840344908603448006800F09BFB002005
:10147000BDE8F081F0B40020002100220023002507
:101480002A4E346814F00C07042F02D0082F02D023
:101490001BE027481AE03248C4F38347C05D0300CD
:1014A000E0030CD52F483668C6F34046805D010046
:1014B0001F4800FB03F0B0FBF1F0020003E02A48F4
:1014C00000FB03F00200100000E01948F0BC704778
:1014D00018480068704780B5FFF7FAFF2349134AA0
:1014E0001268C2F30222895CC84002BD80B5FFF7D2
:1014F000EFFF1E490D4A1268C2F3C222895CC84040
:1015000002BD81B00B490968C9084FF47A72B1FB7A
:10151000F2F101FB00F1009100BF00994A1E009218
:101520000029F9D101B070470010024004100240B8
:1015300000127A006C000020680000202410024095
:1015400000004242800442421C10024000700040F1
:10155000201002406000424200200240582800084B
:1015600048280008221C000800093D008C280008BB
:10157000002200F03DBB30B4002513E050F8042BEE
:10158000D30744BFA9F101039A18091F042942F89F
:10159000045BFAD213468C0744BF15809B1CC90715
:1015A00048BF1D7050F8041B0029E7D130BC7047BC
:1015B0002DE9F84703005FF0000E5FF000080868AF
:1015C00030FA0EF0002800F00081012010FA0EF031
:1015D0000400086820400500A54240F0F3804868F8
:1015E000002831D0012820D0022825D003283CD063
:1015F00011281DD0122823D0DFF8ECC1604523D07C
:10160000DFF8E8C160451FD0DFF8E4C160451BD0BA
:10161000DFF8E0C1604517D0DFF8DCC1604513D0CA
:10162000DFF8D8C160450FD022E0C86880461FE0CF
:10163000C868001D80461BE0C8680830804617E077
:10164000C8680C30804613E08868002802D1042066
:10165000804609E08868012803D1082080461C6183
:1016600002E0082080465C6102E000208046FFE73F
:10167000B5F5807F01D21E0000E01E1DB5F5807F0C
:1016800002D25FEA8E0702E0BEF10807BF005FF0FA
:101690000F09D6F800C019FA07F03CEA000C18FA56
:1016A00007F050EA0C0CC6F800C04868C00040F1D2
:1016B00089805348D0F800C05CF0010CC0F800C02D
:1016C000006810F0010000900098DFF838C1704603
:1016D00080085CF820A01EF00300C0B2800019FA58
:1016E00000F93AEA090A4848834202D15FF000094A
:1016F00013E04648834202D15FF001090DE04448FF
:10170000834202D15FF0020907E04248834202D1DE
:101710005FF0030901E05FF004091EF00300C0B2AE
:10172000800019FA00F9524659EA02027046800810
:101730004CF820204868C00207D53748D0F800C0D0
:1017400055EA0C0CC0F800C006E03348D0F800C0E1
:101750003CEA050CC0F800C04868800207D52F4855
:10176000D0F800C055EA0C0CC0F800C006E02B48C9
:10177000D0F800C03CEA050CC0F800C048688003FF
:1017800007D52748D0F800C055EA0C0CC0F800C0B7
:1017900006E02348D0F800C03CEA050CC0F800C0C1
:1017A0004868C00307D51F48D0F800C055EA0C0CA4
:1017B000C0F800C006E01B48D0F800C03CEA050CA9
:1017C000C0F800C01EF1010EF9E6BDE8F187130074
:1017D000DBB2002B03D00B009BB2036103E00B00D4
:1017E0009BB21B040361704700001110000012102F
:1017F0000000211000002210000031100000321003
:10180000181002400800014000080140000C01408F
:101810000010014000140140080401400C04014084
:10182000040401400004014010B410F007034B4CC5
:1018300022684FF6FF010A40494951EA03210A4351
:10184000226010BC704745480068C0F30220704712
:10185000010049B2002909D4012210F01F018A4079
:10186000404903005BB25B0941F82320704710B484
:10187000020052B2002A05D40A013B4B040064B2B4
:101880001A5508E00A01394B040064B214F00F0441
:10189000234403F8042C10BC704770B4030013F009
:1018A0000704D4F10700052801D3042001E0D4F196
:1018B0000700251D072D01D2002500E0E51E0126A9
:1018C00016FA00F0401E0140A94016FA05F56D1EFB
:1018D0002A401143080070BC704710B50400601E18
:1018E000B0F1807F01D301200EE0601E2049086026
:1018F0000F215FF0FF30FFF7BAFF00201D4908609D
:1019000007201D490860002010BD10B5040020000C
:10191000FFF78AFF10BD2DE9F04104000D0016000D
:101920000027FFF790FF8046320029004046FFF76E
:10193000B4FF0100200040B2FFF799FFBDE8F0813D
:1019400010B50400200040B2FFF782FF10BD10B5B3
:1019500004002000FFF7C1FF10BD00000CED00E007
:101960000000FA0500E100E000E400E018ED00E00E
:1019700014E000E018E000E010E000E080B500F0C6
:1019800051F900F00DF800F0B1F800F09BF800F00C
:101990003CF800F07DF800F057F900F06EF9FCE734
:1019A00000B58FB005A82821FFF7E2FD6846142195
:1019B000FFF7DEFD012005905FF4803006900021E6
:1019C00007910121099102210C910D905FF4E01023
:1019D0000E9005A8FFF7A8FA002801D000F0DAF869
:1019E0000F20009002200190002002904FF48060B0
:1019F00003900020049002216846FFF795FC002820
:101A000001D000F0C7F80FB000BD18B58BB002A828
:101A10002421FFF7ADFD5748D0E90023CDE900238D
:101A2000554C56482060002060600020A0604FF6B2
:101A3000FF70E06000202061002060610020A06154
:101A400003200290002003900120049000200590C4
:101A500000200690022007900120089000200990A5
:101A600000200A9002A9200000F010FA002801D0FE
:101A700000F090F8002000900020019069462000BE
:101A800000F0F6FB002801D000F084F80CB010BD87
:101A900080B53B483B4901604FF4964141600021CD
:101AA00081600021C160002101610C2141610021A0
:101AB00081610021C161FEF719FB002801D000F00F
:101AC00069F801BD80B53048016851F0010101603D
:101AD000006810F0010000900098002200210E2004
:101AE000FFF719FF0E20FFF72BFF01BD18B585B0DA
:101AF00068461021FFF73CFD2448016851F02001A1
:101B00000160016811F0200104910499016851F00D
:101B100008010160016811F008010491049901684D
:101B200051F004010160006810F004000490049872
:101B3000174C00224FF4E0412000FFF748FE40F22E
:101B4000034000900020019001200290694620008F
:101B5000FFF72EFD4FF4E04000901120019000208F
:101B600002900220039069462000FFF721FD06B095
:101B700010BD00008428000850010020002C014006
:101B80009801002000380140141002401810024053
:101B9000000C014072B6FEE701480068704700BFC4
:101BA0007C02002010B504004FF47A700D490978CA
:101BB000B0FBF1F00C490968B1FBF0F0FFF7C7FE8C
:101BC000002801D001200CE0102C09D200222100B5
:101BD0005FF0FF30FFF79FFE04480460002000E044
:101BE000012010BD700000206C0000206800002063
:101BF00000B500BF130096469446103928BFA0E8F0
:101C00000C50FAD85FEA417C28BF0CC048BF40F8AE
:101C1000042BC90728BF20F8022B48BF00F8012B6E
:101C200000BD010280B50748016851F01001016054
:101C30000320FFF76AFE0F20FFF7B4FFFEF760FEF8
:101C4000002002BD0020024010B53C21834800F076
:101C500083F9834C01224FF480512000FFF7B7FD38
:101C600001224FF400512000FFF7B1FD01224FF493
:101C700080412000FFF7ABFD10BD38B5794D2868D5
:101C800000280DD100F0D0FBFFF786FF32307649F7
:101C90000860FFF781FF0A3074490860012028605E
:101CA00000F024FBFFF778FF704D2968814205D2D0
:101CB000FFF772FF0A30286000F0EEFBFFF76CFFC1
:101CC000694D2968814221D2FFF766FF32302860D2
:101CD00000F09EF80400002C0DD00020644908603C
:101CE00064490A686448006800FB04220A600868C6
:101CF00000F074FB0AE05E480168491C016001685D
:101D00000A2903D30021016000F08EFB31BD0028B9
:101D100003D0022803D001D303E002E001E0554ADA
:101D20001160704710B50400002C03D0022C0FD0B6
:101D30000DD30DE001205149086000224FF480418D
:101D40004748FFF744FD012000F082FB00E0FFE779
:101D500010BD10B50400002C03D0022C0FD00DD301
:101D60001EE0002045490860002000F071FB0122C0
:101D70004FF480413A48FFF72AFD11E010E0404857
:101D8000016891F0010101600068012801D0012281
:101D900000E00022D2B24FF400513148FFF717FDA6
:101DA00010BD10B50400002C03D0022C0FD00DD3B1
:101DB0002DE0002031490860002000F049FB01229D
:101DC0004FF480412648FFF702FD20E01FE02A483B
:101DD00001680A2908D10121016000224FF48051D5
:101DE0001F48FFF7F4FC12E0016801290FD10A2116
:101DF0000160204908680A22B0FBF2F20A2042433F
:101E00000A6001224FF480511548FFF7E0FC10BD35
:101E100012480068416A1B480A0012B203689A42DD
:101E20001AD003680A0012B29A1A0B001BB20360A0
:101E300012480068002801D000200EE01048006819
:101E4000002801D0002008E00F48824204DBB2F5F0
:101E50007A7F01DA100000E0002070475001002076
:101E6000000C0140640200205C020020600200209F
:101E7000680200200000002004000020540200201E
:101E8000580200206C02002019FCFFFF70B504000E
:101E90000D00002C01D101205CE094F83D000028E9
:101EA00005D1002084F83C002000FEF747FD022009
:101EB00084F83D0020688168DFF8980101402068BF
:101EC0008160211D206800F088F920688168206801
:101ED00082692068036A28680143DFF87C010240B8
:101EE000A868AE6950EA06200243DFF8700102409C
:101EF000DFF86C010240E868EE6950EA0620024310
:101F000028692E6A360356EA0016324333F022035C
:101F100068686E6950EA0610034320688160206893
:101F2000826120680362012084F84600012084F861
:101F30003E00C0B2012084F83F00C0B2012084F806
:101F40004200C0B2012084F84300C0B2012084F8EE
:101F50003D00002070BD00002DE9F84305000C0095
:101F600095F83E6095F83F7095F8428095F843905B
:101F7000002C12D13000C0B2012803D14046C0B2BB
:101F8000012801D0012062E0022085F83E00C0B2A5
:101F9000022085F84200C0B236E0042C12D138008D
:101FA000C0B2012803D14846C0B2012801D00120A7
:101FB0004DE0022085F83F00C0B2022085F84300C2
:101FC000C0B221E03000C0B201280BD13800C0B24D
:101FD000012807D14046C0B2012803D14846C0B20B
:101FE000012801D0012032E0022085F83E00C0B275
:101FF000022085F83F00C0B2022085F84200C0B23E
:10200000022085F84300C0B22000002802D0042836
:1020100006D00BE001220021286800F017F90FE03C
:1020200001220421286800F011F909E001220021B1
:10203000286800F00BF901220421286800F006F955
:102040002868006850F00100296808600020BDE899
:10205000F2830000F8BFFFFFFCFCFFFFF3F3FFFF7C
:102060000F0FFFFF10B504002068006980071AD524
:102070002068C068800716D57FF0020021680861DB
:10208000012020772068806910F0030F03D0200022
:1020900000F09AFA05E0200000F097FA200000F026
:1020A00095FA002020772068006940071AD520683B
:1020B000C068400716D57FF004002168086102203F
:1020C00020772068806910F4407F03D0200000F062
:1020D0007BFA05E0200000F078FA200000F076FAA4
:1020E000002020772068006900071AD52068C068A2
:1020F000000716D57FF008002168086104202077CA
:102100002068C06910F0030F03D0200000F05CFAD3
:1021100005E0200000F059FA200000F057FA0020F6
:10212000207720680069C0061AD52068C068C006FC
:1021300016D57FF0100021680861082020772068FC
:10214000C06910F4407F03D0200000F03DFA05E0A4
:10215000200000F03AFA200000F038FA0020207742
:1021600020680069C0070AD52068C068C00706D586
:102170007FF0010021680861200000F028FA206843
:10218000006900060AD52068C068000606D57FF001
:10219000800021680861200000F01AFA20680069B8
:1021A00040060AD52068C068400606D57FF040008A
:1021B00021680861200000F00CFA206800698006A0
:1021C0000AD52068C068800606D57FF02000216807
:1021D0000861200000F0FEF910BD10B40368184C2F
:1021E000A04208D0B0F1804F05D0164A904202D0EC
:1021F000154A904203D133F070034A681343A0425A
:1022000008D0B0F1804F05D00E4A904202D00E4A5D
:10221000904203D133F44073CA68134333F0800310
:102220004A69134303608A68C2620A688262A042F4
:1022300001D10A6902630122426110BC70470000AB
:10224000002C0140000400400008004030B401248C
:1022500011F01F0314FA03F3046A9C430462046A36
:1022600011F01F0512FA05F52C43046230BC7047CB
:1022700030B4020092F83C00012801D102202CE089
:10228000012082F83C00022082F83D00106843687B
:102290001068846833F07003086803431068436073
:1022A00010680F4DA8420BD01068B0F1804F07D0D6
:1022B00010680C4DA84203D010680B4DA84205D100
:1022C00034F080044868044310688460012082F878
:1022D0003D00002082F83C00002030BC7047000028
:1022E000002C0140000400400008004038B50121E6
:1022F0006846FEF7E2FD00286FD0604D2868002890
:1023000002D002281BD0F2E75D490868002807D1F7
:102310009DF80000FE2811D10868401C08600DE0FF
:10232000086801280AD19DF80000FE2804D1022087
:1023300028600020534A106000200860D7E79DF80D
:102340000000FE2805D101204D49086000202860CA
:10235000CDE79DF80000FD2832D14A4800680028EA
:1023600028D0494A1078E02824D19078252812D125
:10237000D07800280FD100205072002090720020E9
:10238000D072D2E9010100F041F9040021000220DD
:10239000FFF7BDFC0EE09078FB2804D1002100205F
:1023A000FFF7B5FC06E09078FA2803D10021012060
:1023B000FFF7ADFC0020286000203149086096E757
:1023C00030480168502907DA9DF800102E4A03684A
:1023D000D1540168491C016089E731BD2DE9FC41F8
:1023E0000400200000F0F7F8CDE90001274DFE20A1
:1023F0002870FE206870A420A870E020E8702520D6
:1024000028710020687105266F4615F10608320014
:102410003900404600F020F9FD20E8720C21280028
:10242000FEF740FDBDE8F38180B51948FE2101703B
:10243000FE214170A4218170E021C170252101712C
:1024400000214171FD2181710721FEF72BFD01BDA6
:1024500010B504000F48FE210170FE214170A42137
:102460008170E021C1701C210171002141718471D2
:10247000FD21C1710821FEF715FD10BD700200207D
:1024800074020020780200200001002024020020B5
:10249000340200204402002070B50025032D80F294
:1024A0008F80484E680130440069012811DB6801C3
:1024B00030440069401E69013144086168013044BC
:1024C0000069002805D12800FFF76BFC0220690194
:1024D0007050680130448069806869013144898B9B
:1024E000084201D1012400E00024002C38D068010A
:1024F0003044406869013144C968884204DB68019E
:102500003044C068002859D1680130444068401CFC
:1025100069013144486068013044406869013144D0
:10252000C968884204DA68013044C068002845D18F
:1025300068013044806800280DD16801304440694A
:10254000002805D0680130444069690131440861C0
:102550002800FFF7E7FB01206901314488602DE086
:10256000680130444068012804DA68013044C068DA
:10257000002823D1680130444068401E690131447D
:102580004860680130444068012817DA6801304427
:10259000806800280ED068013058022803D101203D
:1025A0006901705002E02800FFF7D3FB00206901A9
:1025B0003144086100206901314488606D1C6DE779
:1025C00070BD00BF0800002070477047704770471B
:1025D000704770477047F8B50400002000210025BF
:1025E000012C12DB0A2206000F0094FBF2F002FB22
:1025F00010421000D1172A0000F082F8304339430E
:102600000A2294FBF2F42D1DEAE7F4BD2DE9F00F48
:1026100004000D000020012200230A2B19DA060015
:10262000002714F00F0815F0000910000021A0FB8E
:1026300008AB00FB09BB01FB08BB16EB0A0057EB1C
:102640000B01240944EA05742D090A214A435B1C45
:10265000E3E7BDE8F00F704762B38B0708D0521E66
:1026600011F8013B00F8013B00F024808B07F6D104
:10267000830740F0208000BF103A07D330B4B1E8A0
:102680003810103AA0E83810F9D230BC530724BFF4
:10269000B1E80810A0E8081044BF51F8043B40F826
:1026A000043BD20724BF31F8022B20F8022B44BF91
:1026B0000B7803707047121F17D35B0009D151F8D4
:1026C000043B20F8023B1B0C121F20F8023BF6D201
:1026D0000BE051F8043B00F8013B1B0A20F8023BD9
:1026E0001B0C121F00F8013BF3D238BF121D521E03
:1026F00024BF11F8013B00F8013BF8D870470000F7
:10270000D2B2203A22BF00FA02F1002070475242B2
:10271000D041D2F1200291404140D0409040414010
:1027200070470000FEE7FEE7FEE7FEE7FEE77047C2
:102730007047704780B500F017F801BD80B50748B5
:10274000FEF7A2FA01BD80B50548FFF78BFC01BD7D
:1027500080B50448FDF76CFD01BD0000E0010020DC
:10276000500100209801002003490A6803480078BE
:1027700082180A60704700BF7C02002070000020B1
:1027800030B5016884684218416802EB5103C907FB
:102790000BD54C4409E012F9011B12F8015B00292A
:1027A00004F8015B05D5491CF9D19A42F3D10C30EC
:1027B00030BD491EF1D5F8E710B507497944183105
:1027C000064C7C44163404E00A68081D114488470E
:1027D0000146A142F8D110BD08000000240000000D
:1027E00097EDFFFF0C0200007400002000000000C5
:1027F00091FFFFFF420100007E000000000000206A
:1028000000F00DF8002801D0FFF7D6FFAFF30080ED
:102810000020AFF30080FFF7B1F800F002F80120CC
:10282000704700F001B800000746384600F002F893
:10283000FBE7000080B5AFF30080024A11001820CA
:10284000ABBEFBE7260002000203040506070809E9
:102850000A0B0C0D0E0F101000000000000000000D
:1028600001020304060708090148804701480047A0
:102870003529000879280008AFF30080AFF3008005
:10288000FFF7BEFF00000000000000000000000095
:1028900001020304FFF7FEBFFFF7FEBFFFF7FEBF15
:1028A000FFF7FEBFFFF7FEBFFFF7FEBFFFF7FEBF5C
:1028B000FFF7FEBFFFF7FEBFFFF7FEBFFFF7FEBF4C
:1028C000FFF7FEBFFFF7FEBFFFF7FEBFFFF7FEBF3C
:1028D000FFF7FEBFFFF7FEBFFFF7FEBFFFF7FEBF2C
:1028E000FFF7FEBFFFF7FEBFFFF7FEBFFFF7FEBF1C
:1028F000FFF7FEBFFFF7FEBFFFF7FEBFFFF7FEBF0C
:10290000FFF7FEBFFFF7FEBFFFF7FEBFFFF7FEBFFB
:10291000FFF7FEBFFFF7FEBFFFF7FEBFFFF7FEBFEB
:10292000FFF7FEBFFFF7FEBFFFF7FEBFFFF7FEBFDB
:10293000FFF7FEBF704704F4FF6A000AF100000AC7
:10294000F90001E02EFD00030C014001F100000A36
:10295000F9000064FC00030C014002F100000AF9D8
:10296000000064FC00070C01400004000010FC00A3
:052970000324F4000146
:04000005080028794E
:00000001FF
